{
  "_format": "hh-sol-artifact-1",
  "contractName": "AddressHub",
  "sourceName": "contracts/AddressHub.sol",
  "abi": [
    {
      "anonymous": false,
      "inputs": [
        {
          "indexed": true,
          "internalType": "address",
          "name": "user",
          "type": "address"
        },
        {
          "indexed": true,
          "internalType": "bytes32",
          "name": "addressId",
          "type": "bytes32"
        },
        {
          "indexed": false,
          "internalType": "string",
          "name": "addressName",
          "type": "string"
        }
      ],
      "name": "AddressCreated",
      "type": "event"
    },
    {
      "anonymous": false,
      "inputs": [
        {
          "indexed": true,
          "internalType": "address",
          "name": "user",
          "type": "address"
        },
        {
          "indexed": true,
          "internalType": "bytes32",
          "name": "addressId",
          "type": "bytes32"
        }
      ],
      "name": "AddressDeleted",
      "type": "event"
    },
    {
      "anonymous": false,
      "inputs": [
        {
          "indexed": true,
          "internalType": "address",
          "name": "user",
          "type": "address"
        },
        {
          "indexed": true,
          "internalType": "bytes32",
          "name": "addressId",
          "type": "bytes32"
        }
      ],
      "name": "AddressUpdated",
      "type": "event"
    },
    {
      "inputs": [
        {
          "internalType": "bytes32",
          "name": "addressId",
          "type": "bytes32"
        },
        {
          "internalType": "string",
          "name": "addressName",
          "type": "string"
        },
        {
          "internalType": "string",
          "name": "fullAddress",
          "type": "string"
        },
        {
          "internalType": "string",
          "name": "street",
          "type": "string"
        },
        {
          "internalType": "string",
          "name": "suburb",
          "type": "string"
        },
        {
          "internalType": "string",
          "name": "state",
          "type": "string"
        },
        {
          "internalType": "string",
          "name": "postcode",
          "type": "string"
        },
        {
          "internalType": "bool",
          "name": "isDefault",
          "type": "bool"
        }
      ],
      "name": "createAddress",
      "outputs": [],
      "stateMutability": "nonpayable",
      "type": "function"
    },
    {
      "inputs": [
        {
          "internalType": "bytes32",
          "name": "addressId",
          "type": "bytes32"
        }
      ],
      "name": "deleteAddress",
      "outputs": [],
      "stateMutability": "nonpayable",
      "type": "function"
    },
    {
      "inputs": [
        {
          "internalType": "bytes32",
          "name": "addressId",
          "type": "bytes32"
        }
      ],
      "name": "getAddress",
      "outputs": [
        {
          "components": [
            {
              "internalType": "string",
              "name": "addressName",
              "type": "string"
            },
            {
              "internalType": "string",
              "name": "fullAddress",
              "type": "string"
            },
            {
              "internalType": "string",
              "name": "street",
              "type": "string"
            },
            {
              "internalType": "string",
              "name": "suburb",
              "type": "string"
            },
            {
              "internalType": "string",
              "name": "state",
              "type": "string"
            },
            {
              "internalType": "string",
              "name": "postcode",
              "type": "string"
            },
            {
              "internalType": "bool",
              "name": "isDefault",
              "type": "bool"
            },
            {
              "internalType": "bool",
              "name": "isActive",
              "type": "bool"
            },
            {
              "internalType": "uint256",
              "name": "createdAt",
              "type": "uint256"
            },
            {
              "internalType": "uint256",
              "name": "updatedAt",
              "type": "uint256"
            }
          ],
          "internalType": "struct AddressHub.AddressData",
          "name": "",
          "type": "tuple"
        }
      ],
      "stateMutability": "view",
      "type": "function"
    },
    {
      "inputs": [],
      "name": "getAddressCount",
      "outputs": [
        {
          "internalType": "uint256",
          "name": "",
          "type": "uint256"
        }
      ],
      "stateMutability": "view",
      "type": "function"
    },
    {
      "inputs": [],
      "name": "getUserAddresses",
      "outputs": [
        {
          "internalType": "bytes32[]",
          "name": "",
          "type": "bytes32[]"
        }
      ],
      "stateMutability": "view",
      "type": "function"
    },
    {
      "inputs": [
        {
          "internalType": "bytes32",
          "name": "addressId",
          "type": "bytes32"
        },
        {
          "internalType": "string",
          "name": "addressName",
          "type": "string"
        },
        {
          "internalType": "string",
          "name": "fullAddress",
          "type": "string"
        },
        {
          "internalType": "string",
          "name": "street",
          "type": "string"
        },
        {
          "internalType": "string",
          "name": "suburb",
          "type": "string"
        },
        {
          "internalType": "string",
          "name": "state",
          "type": "string"
        },
        {
          "internalType": "string",
          "name": "postcode",
          "type": "string"
        },
        {
          "internalType": "bool",
          "name": "isDefault",
          "type": "bool"
        }
      ],
      "name": "updateAddress",
      "outputs": [],
      "stateMutability": "nonpayable",
      "type": "function"
    },
    {
      "inputs": [
        {
          "internalType": "address",
          "name": "",
          "type": "address"
        },
        {
          "internalType": "uint256",
          "name": "",
          "type": "uint256"
        }
      ],
      "name": "userAddressIds",
      "outputs": [
        {
          "internalType": "bytes32",
          "name": "",
          "type": "bytes32"
        }
      ],
      "stateMutability": "view",
      "type": "function"
    },
    {
      "inputs": [
        {
          "internalType": "address",
          "name": "",
          "type": "address"
        },
        {
          "internalType": "bytes32",
          "name": "",
          "type": "bytes32"
        }
      ],
      "name": "userAddresses",
      "outputs": [
        {
          "internalType": "string",
          "name": "addressName",
          "type": "string"
        },
        {
          "internalType": "string",
          "name": "fullAddress",
          "type": "string"
        },
        {
          "internalType": "string",
          "name": "street",
          "type": "string"
        },
        {
          "internalType": "string",
          "name": "suburb",
          "type": "string"
        },
        {
          "internalType": "string",
          "name": "state",
          "type": "string"
        },
        {
          "internalType": "string",
          "name": "postcode",
          "type": "string"
        },
        {
          "internalType": "bool",
          "name": "isDefault",
          "type": "bool"
        },
        {
          "internalType": "bool",
          "name": "isActive",
          "type": "bool"
        },
        {
          "internalType": "uint256",
          "name": "createdAt",
          "type": "uint256"
        },
        {
          "internalType": "uint256",
          "name": "updatedAt",
          "type": "uint256"
        }
      ],
      "stateMutability": "view",
      "type": "function"
    }
  ],
  "bytecode": "0x608060405234801561001057600080fd5b50611485806100206000396000f3fe608060405234801561001057600080fd5b50600436106100885760003560e01c8063a591efde1161005b578063a591efde14610107578063cdbb02af1461011c578063e7bfff761461013b578063f83495061461014e57600080fd5b80630e14a3761461008d57806320518229146100a257806321f8a721146100d45780637e04d7d3146100f4575b600080fd5b6100a061009b366004610e63565b610161565b005b6100b56100b0366004610e98565b610222565b6040516100cb9a99989796959493929190610f08565b60405180910390f35b6100e76100e2366004610e63565b6105ad565b6040516100cb9190610fac565b6100a061010236600461115a565b6109d0565b61010f610bc5565b6040516100cb919061126b565b336000908152600160205260409020545b6040519081526020016100cb565b6100a061014936600461115a565b610c26565b61012d61015c366004610e98565b610d68565b336000908152602081815260408083208484529091528120600701548291036101ca5760405162461bcd60e51b81526020600482015260166024820152751059191c995cdcc8191bd95cc81b9bdd08195e1a5cdd60521b60448201526064015b60405180910390fd5b3360008181526020818152604080832086845290915280822060068101805461ff001916905542600890910155518492917fed9474c4702ee9da4d0d2085840fafed5912b8e13daf1d6ea341ebe98803aec291a35050565b6000602081815292815260408082209093529081522080548190610245906112af565b80601f0160208091040260200160405190810160405280929190818152602001828054610271906112af565b80156102be5780601f10610293576101008083540402835291602001916102be565b820191906000526020600020905b8154815290600101906020018083116102a157829003601f168201915b5050505050908060010180546102d3906112af565b80601f01602080910402602001604051908101604052809291908181526020018280546102ff906112af565b801561034c5780601f106103215761010080835404028352916020019161034c565b820191906000526020600020905b81548152906001019060200180831161032f57829003601f168201915b505050505090806002018054610361906112af565b80601f016020809104026020016040519081016040528092919081815260200182805461038d906112af565b80156103da5780601f106103af576101008083540402835291602001916103da565b820191906000526020600020905b8154815290600101906020018083116103bd57829003601f168201915b5050505050908060030180546103ef906112af565b80601f016020809104026020016040519081016040528092919081815260200182805461041b906112af565b80156104685780601f1061043d57610100808354040283529160200191610468565b820191906000526020600020905b81548152906001019060200180831161044b57829003601f168201915b50505050509080600401805461047d906112af565b80601f01602080910402602001604051908101604052809291908181526020018280546104a9906112af565b80156104f65780601f106104cb576101008083540402835291602001916104f6565b820191906000526020600020905b8154815290600101906020018083116104d957829003601f168201915b50505050509080600501805461050b906112af565b80601f0160208091040260200160405190810160405280929190818152602001828054610537906112af565b80156105845780601f1061055957610100808354040283529160200191610584565b820191906000526020600020905b81548152906001019060200180831161056757829003601f168201915b50505060068401546007850154600890950154939460ff8083169561010090930416935091508a565b61060760405180610140016040528060608152602001606081526020016060815260200160608152602001606081526020016060815260200160001515815260200160001515815260200160008152602001600081525090565b33600090815260208181526040808320858452909152908190208151610140810190925280548290829061063a906112af565b80601f0160208091040260200160405190810160405280929190818152602001828054610666906112af565b80156106b35780601f10610688576101008083540402835291602001916106b3565b820191906000526020600020905b81548152906001019060200180831161069657829003601f168201915b505050505081526020016001820180546106cc906112af565b80601f01602080910402602001604051908101604052809291908181526020018280546106f8906112af565b80156107455780601f1061071a57610100808354040283529160200191610745565b820191906000526020600020905b81548152906001019060200180831161072857829003601f168201915b5050505050815260200160028201805461075e906112af565b80601f016020809104026020016040519081016040528092919081815260200182805461078a906112af565b80156107d75780601f106107ac576101008083540402835291602001916107d7565b820191906000526020600020905b8154815290600101906020018083116107ba57829003601f168201915b505050505081526020016003820180546107f0906112af565b80601f016020809104026020016040519081016040528092919081815260200182805461081c906112af565b80156108695780601f1061083e57610100808354040283529160200191610869565b820191906000526020600020905b81548152906001019060200180831161084c57829003601f168201915b50505050508152602001600482018054610882906112af565b80601f01602080910402602001604051908101604052809291908181526020018280546108ae906112af565b80156108fb5780601f106108d0576101008083540402835291602001916108fb565b820191906000526020600020905b8154815290600101906020018083116108de57829003601f168201915b50505050508152602001600582018054610914906112af565b80601f0160208091040260200160405190810160405280929190818152602001828054610940906112af565b801561098d5780601f106109625761010080835404028352916020019161098d565b820191906000526020600020905b81548152906001019060200180831161097057829003601f168201915b5050509183525050600682015460ff8082161515602084015261010090910416151560408201526007820154606082015260089091015460809091015292915050565b336000908152602081815260408083208b845290915290206007015415610a325760405162461bcd60e51b81526020600482015260166024820152754164647265737320616c72656164792065786973747360501b60448201526064016101c1565b8015610a4157610a4133610d99565b60408051610140810182528881526020808201899052818301889052606082018790526080820186905260a0820185905283151560c0830152600160e08301524261010083018190526101208301523360009081528082528381208c82529091529190912081518190610ab49082611338565b5060208201516001820190610ac99082611338565b5060408201516002820190610ade9082611338565b5060608201516003820190610af39082611338565b5060808201516004820190610b089082611338565b5060a08201516005820190610b1d9082611338565b5060c082015160068201805460e085015161ffff1990911692151561ff0019169290921761010092151583021790558201516007820155610120909101516008909101553360008181526001602081815260408084208054938401815584529220018a9055518991907f636abf13c0a8768a8252981c8ba966e4c3e0dc5aa25c124296fc2630391a942690610bb3908b906113f8565b60405180910390a35050505050505050565b33600090815260016020908152604091829020805483518184028101840190945280845260609392830182828015610c1c57602002820191906000526020600020905b815481526020019060010190808311610c08575b5050505050905090565b336000908152602081815260408083208b8452909152812060070154899103610c8a5760405162461bcd60e51b81526020600482015260166024820152751059191c995cdcc8191bd95cc81b9bdd08195e1a5cdd60521b60448201526064016101c1565b336000908152602081815260408083208c84529091529020828015610cb45750600681015460ff16155b15610cc257610cc233610d99565b80610ccd8a82611338565b5060018101610cdc8982611338565b5060028101610ceb8882611338565b5060038101610cfa8782611338565b5060048101610d098682611338565b5060058101610d188582611338565b5060068101805460ff19168415151790554260088201556040518a9033907f8e7e6ab6c4613205e833e1faf5415d78dd10130a8828f729c08036e2a7a6277090600090a350505050505050505050565b60016020528160005260406000208181548110610d8457600080fd5b90600052602060002001600091509150505481565b60005b6001600160a01b038216600090815260016020526040902054811015610e5f576001600160a01b0382166000908152600160205260408120805483908110610de657610de6611412565b60009182526020808320909101546001600160a01b0386168352828252604080842082855290925291206006015490915060ff1615610e4c576001600160a01b0383166000908152602081815260408083208484529091529020600601805460ff191690555b5080610e5781611428565b915050610d9c565b5050565b600060208284031215610e7557600080fd5b5035919050565b80356001600160a01b0381168114610e9357600080fd5b919050565b60008060408385031215610eab57600080fd5b610eb483610e7c565b946020939093013593505050565b6000815180845260005b81811015610ee857602081850181015186830182015201610ecc565b506000602082860101526020601f19601f83011685010191505092915050565b6000610140808352610f1c8184018e610ec2565b90508281036020840152610f30818d610ec2565b90508281036040840152610f44818c610ec2565b90508281036060840152610f58818b610ec2565b90508281036080840152610f6c818a610ec2565b905082810360a0840152610f808189610ec2565b96151560c0840152505092151560e0840152610100830191909152610120909101529695505050505050565b6020815260008251610140806020850152610fcb610160850183610ec2565b91506020850151601f1980868503016040870152610fe98483610ec2565b935060408701519150808685030160608701526110068483610ec2565b935060608701519150808685030160808701526110238483610ec2565b935060808701519150808685030160a08701526110408483610ec2565b935060a08701519150808685030160c08701525061105e8382610ec2565b92505060c085015161107460e086018215159052565b5060e085015161010061108a8187018315159052565b860151610120868101919091529095015193019290925250919050565b634e487b7160e01b600052604160045260246000fd5b600082601f8301126110ce57600080fd5b813567ffffffffffffffff808211156110e9576110e96110a7565b604051601f8301601f19908116603f01168101908282118183101715611111576111116110a7565b8160405283815286602085880101111561112a57600080fd5b836020870160208301376000602085830101528094505050505092915050565b80358015158114610e9357600080fd5b600080600080600080600080610100898b03121561117757600080fd5b88359750602089013567ffffffffffffffff8082111561119657600080fd5b6111a28c838d016110bd565b985060408b01359150808211156111b857600080fd5b6111c48c838d016110bd565b975060608b01359150808211156111da57600080fd5b6111e68c838d016110bd565b965060808b01359150808211156111fc57600080fd5b6112088c838d016110bd565b955060a08b013591508082111561121e57600080fd5b61122a8c838d016110bd565b945060c08b013591508082111561124057600080fd5b5061124d8b828c016110bd565b92505061125c60e08a0161114a565b90509295985092959890939650565b6020808252825182820181905260009190848201906040850190845b818110156112a357835183529284019291840191600101611287565b50909695505050505050565b600181811c908216806112c357607f821691505b6020821081036112e357634e487b7160e01b600052602260045260246000fd5b50919050565b601f82111561133357600081815260208120601f850160051c810160208610156113105750805b601f850160051c820191505b8181101561132f5782815560010161131c565b5050505b505050565b815167ffffffffffffffff811115611352576113526110a7565b6113668161136084546112af565b846112e9565b602080601f83116001811461139b57600084156113835750858301515b600019600386901b1c1916600185901b17855561132f565b600085815260208120601f198616915b828110156113ca578886015182559484019460019091019084016113ab565b50858210156113e85787850151600019600388901b60f8161c191681555b5050505050600190811b01905550565b60208152600061140b6020830184610ec2565b9392505050565b634e487b7160e01b600052603260045260246000fd5b60006001820161144857634e487b7160e01b600052601160045260246000fd5b506001019056fea26469706673582212204d6771f0b47a740cc28294f73f5d20f5e4b11fc059a939c7bca074e2f0e8a19564736f6c63430008130033",
  "linkReferences": {},
  "deployedLinkReferences": {}
}